{
  "contractName": "TicketSale",
  "abi": [
    {
      "constant": true,
      "inputs": [
        {
          "name": "",
          "type": "uint256"
        }
      ],
      "name": "tickets",
      "outputs": [
        {
          "name": "title",
          "type": "string"
        },
        {
          "name": "location",
          "type": "string"
        },
        {
          "name": "date",
          "type": "uint256"
        },
        {
          "name": "imageUrl",
          "type": "string"
        },
        {
          "name": "price",
          "type": "uint32"
        },
        {
          "name": "qty",
          "type": "uint32"
        },
        {
          "name": "owner",
          "type": "address"
        }
      ],
      "payable": false,
      "stateMutability": "view",
      "type": "function"
    },
    {
      "anonymous": false,
      "inputs": [
        {
          "indexed": false,
          "name": "id",
          "type": "uint256"
        },
        {
          "indexed": false,
          "name": "title",
          "type": "string"
        },
        {
          "indexed": false,
          "name": "location",
          "type": "string"
        },
        {
          "indexed": false,
          "name": "date",
          "type": "uint256"
        },
        {
          "indexed": false,
          "name": "imageUrl",
          "type": "string"
        },
        {
          "indexed": false,
          "name": "price",
          "type": "uint32"
        },
        {
          "indexed": false,
          "name": "qty",
          "type": "uint32"
        },
        {
          "indexed": false,
          "name": "owner",
          "type": "address"
        }
      ],
      "name": "NewEventRegistered",
      "type": "event"
    },
    {
      "anonymous": false,
      "inputs": [
        {
          "indexed": false,
          "name": "id",
          "type": "uint256"
        },
        {
          "indexed": false,
          "name": "title",
          "type": "string"
        },
        {
          "indexed": false,
          "name": "location",
          "type": "string"
        },
        {
          "indexed": false,
          "name": "date",
          "type": "uint256"
        },
        {
          "indexed": false,
          "name": "imageUrl",
          "type": "string"
        },
        {
          "indexed": false,
          "name": "price",
          "type": "uint32"
        },
        {
          "indexed": false,
          "name": "qty",
          "type": "uint32"
        },
        {
          "indexed": false,
          "name": "owner",
          "type": "address"
        }
      ],
      "name": "UpdateEvent",
      "type": "event"
    },
    {
      "anonymous": false,
      "inputs": [
        {
          "indexed": false,
          "name": "id",
          "type": "uint256"
        },
        {
          "indexed": false,
          "name": "event_id",
          "type": "uint256"
        },
        {
          "indexed": false,
          "name": "buyer",
          "type": "address"
        }
      ],
      "name": "TicketRegistered",
      "type": "event"
    },
    {
      "constant": false,
      "inputs": [
        {
          "name": "_title",
          "type": "string"
        },
        {
          "name": "_location",
          "type": "string"
        },
        {
          "name": "_date",
          "type": "uint256"
        },
        {
          "name": "_imageUrl",
          "type": "string"
        },
        {
          "name": "_price",
          "type": "uint32"
        },
        {
          "name": "_qty",
          "type": "uint32"
        }
      ],
      "name": "postEvent",
      "outputs": [],
      "payable": false,
      "stateMutability": "nonpayable",
      "type": "function"
    },
    {
      "constant": false,
      "inputs": [
        {
          "name": "event_id",
          "type": "uint256"
        }
      ],
      "name": "buyTicket",
      "outputs": [],
      "payable": true,
      "stateMutability": "payable",
      "type": "function"
    }
  ],
  "bytecode": "0x6080604052600060015534801561001557600080fd5b506112df806100256000396000f3fe608060405260043610610057576000357c0100000000000000000000000000000000000000000000000000000000900463ffffffff1680631961318d1461005c57806350b447121461027c57806367dd74ca14610468575b600080fd5b34801561006857600080fd5b5061027a600480360360c081101561007f57600080fd5b810190808035906020019064010000000081111561009c57600080fd5b8201836020820111156100ae57600080fd5b803590602001918460018302840111640100000000831117156100d057600080fd5b91908080601f016020809104026020016040519081016040528093929190818152602001838380828437600081840152601f19601f8201169050808301925050505050505091929192908035906020019064010000000081111561013357600080fd5b82018360208201111561014557600080fd5b8035906020019184600183028401116401000000008311171561016757600080fd5b91908080601f016020809104026020016040519081016040528093929190818152602001838380828437600081840152601f19601f82011690508083019250505050505050919291929080359060200190929190803590602001906401000000008111156101d457600080fd5b8201836020820111156101e657600080fd5b8035906020019184600183028401116401000000008311171561020857600080fd5b91908080601f016020809104026020016040519081016040528093929190818152602001838380828437600081840152601f19601f820116905080830192505050505050509192919290803563ffffffff169060200190929190803563ffffffff169060200190929190505050610496565b005b34801561028857600080fd5b506102b56004803603602081101561029f57600080fd5b8101908080359060200190929190505050610803565b604051808060200180602001888152602001806020018763ffffffff1663ffffffff1681526020018663ffffffff1663ffffffff1681526020018573ffffffffffffffffffffffffffffffffffffffff1673ffffffffffffffffffffffffffffffffffffffff16815260200184810384528b818151815260200191508051906020019080838360005b8381101561035957808201518184015260208101905061033e565b50505050905090810190601f1680156103865780820380516001836020036101000a031916815260200191505b5084810383528a818151815260200191508051906020019080838360005b838110156103bf5780820151818401526020810190506103a4565b50505050905090810190601f1680156103ec5780820380516001836020036101000a031916815260200191505b50848103825288818151815260200191508051906020019080838360005b8381101561042557808201518184015260208101905061040a565b50505050905090810190601f1680156104525780820380516001836020036101000a031916815260200191505b509a505050505050505050505060405180910390f35b6104946004803603602081101561047e57600080fd5b8101908080359060200190929190505050610a5c565b005b60006001600060e0604051908101604052808a81526020018981526020018881526020018781526020018663ffffffff1681526020018563ffffffff1681526020013373ffffffffffffffffffffffffffffffffffffffff168152509080600181540180825580915050906001820390600052602060002090600502016000909192909190915060008201518160000190805190602001906105399291906111ae565b5060208201518160010190805190602001906105569291906111ae565b5060408201518160020155606082015181600301908051906020019061057d9291906111ae565b5060808201518160040160006101000a81548163ffffffff021916908363ffffffff16021790555060a08201518160040160046101000a81548163ffffffff021916908363ffffffff16021790555060c08201518160040160086101000a81548173ffffffffffffffffffffffffffffffffffffffff021916908373ffffffffffffffffffffffffffffffffffffffff16021790555050500390507f40794f16de8780e16752028bb12cba964eb044adc92bc230c5000783f5216e258188888888888833604051808981526020018060200180602001888152602001806020018763ffffffff1663ffffffff1681526020018663ffffffff1663ffffffff1681526020018573ffffffffffffffffffffffffffffffffffffffff1673ffffffffffffffffffffffffffffffffffffffff16815260200184810384528b818151815260200191508051906020019080838360005b838110156106eb5780820151818401526020810190506106d0565b50505050905090810190601f1680156107185780820380516001836020036101000a031916815260200191505b5084810383528a818151815260200191508051906020019080838360005b83811015610751578082015181840152602081019050610736565b50505050905090810190601f16801561077e5780820380516001836020036101000a031916815260200191505b50848103825288818151815260200191508051906020019080838360005b838110156107b757808201518184015260208101905061079c565b50505050905090810190601f1680156107e45780820380516001836020036101000a031916815260200191505b509b50505050505050505050505060405180910390a150505050505050565b60008181548110151561081257fe5b9060005260206000209060050201600091509050806000018054600181600116156101000203166002900480601f0160208091040260200160405190810160405280929190818152602001828054600181600116156101000203166002900480156108be5780601f10610893576101008083540402835291602001916108be565b820191906000526020600020905b8154815290600101906020018083116108a157829003601f168201915b505050505090806001018054600181600116156101000203166002900480601f01602080910402602001604051908101604052809291908181526020018280546001816001161561010002031660029004801561095c5780601f106109315761010080835404028352916020019161095c565b820191906000526020600020905b81548152906001019060200180831161093f57829003601f168201915b505050505090806002015490806003018054600181600116156101000203166002900480601f016020809104026020016040519081016040528092919081815260200182805460018160011615610100020316600290048015610a005780601f106109d557610100808354040283529160200191610a00565b820191906000526020600020905b8154815290600101906020018083116109e357829003601f168201915b5050505050908060040160009054906101000a900463ffffffff16908060040160049054906101000a900463ffffffff16908060040160089054906101000a900473ffffffffffffffffffffffffffffffffffffffff16905087565b610a6461122e565b600082815481101515610a7357fe5b906000526020600020906005020160e06040519081016040529081600082018054600181600116156101000203166002900480601f016020809104026020016040519081016040528092919081815260200182805460018160011615610100020316600290048015610b265780601f10610afb57610100808354040283529160200191610b26565b820191906000526020600020905b815481529060010190602001808311610b0957829003601f168201915b50505050508152602001600182018054600181600116156101000203166002900480601f016020809104026020016040519081016040528092919081815260200182805460018160011615610100020316600290048015610bc85780601f10610b9d57610100808354040283529160200191610bc8565b820191906000526020600020905b815481529060010190602001808311610bab57829003601f168201915b5050505050815260200160028201548152602001600382018054600181600116156101000203166002900480601f016020809104026020016040519081016040528092919081815260200182805460018160011615610100020316600290048015610c745780601f10610c4957610100808354040283529160200191610c74565b820191906000526020600020905b815481529060010190602001808311610c5757829003601f168201915b505050505081526020016004820160009054906101000a900463ffffffff1663ffffffff1663ffffffff1681526020016004820160049054906101000a900463ffffffff1663ffffffff1663ffffffff1681526020016004820160089054906101000a900473ffffffffffffffffffffffffffffffffffffffff1673ffffffffffffffffffffffffffffffffffffffff1673ffffffffffffffffffffffffffffffffffffffff1681525050905060008160a0015163ffffffff16111515610da3576040517f08c379a00000000000000000000000000000000000000000000000000000000081526004018080602001828103825260208152602001807f536f7272792120416c6c207469636b6574732061726520736f6c64206f75742e81525060200191505060405180910390fd5b42816040015110151515610e1f576040517f08c379a00000000000000000000000000000000000000000000000000000000081526004018080602001828103825260208152602001807f596f752063616e7420627579207469636b657473206166746572206576656e7481525060200191505060405180910390fd5b34816080015163ffffffff16141515610ec6576040517f08c379a000000000000000000000000000000000000000000000000000000000815260040180806020018281038252602a8152602001807f596f752073656e642076616c756520646966666572656e74207468616e20746981526020017f636b65742070726963650000000000000000000000000000000000000000000081525060400191505060405180910390fd5b600060016000815480929190600101919050559050600083815481101515610eea57fe5b9060005260206000209060050201600401600481819054906101000a900463ffffffff16809291906001900391906101000a81548163ffffffff021916908363ffffffff160217905550507f1497e1bba9d1457385803af618f5cb5b4ee6eb1e424cdcd63b123be57b4abe9a818433604051808481526020018381526020018273ffffffffffffffffffffffffffffffffffffffff1673ffffffffffffffffffffffffffffffffffffffff168152602001935050505060405180910390a17f3c718737a13dded3f25272e4b3db73b2bbfef5c048fca60d424928ede7c8cd5d838360000151846020015185604001518660600151876080015160018960a00151038960c00151604051808981526020018060200180602001888152602001806020018763ffffffff1663ffffffff1681526020018663ffffffff1663ffffffff1681526020018573ffffffffffffffffffffffffffffffffffffffff1673ffffffffffffffffffffffffffffffffffffffff16815260200184810384528b818151815260200191508051906020019080838360005b8381101561109a57808201518184015260208101905061107f565b50505050905090810190601f1680156110c75780820380516001836020036101000a031916815260200191505b5084810383528a818151815260200191508051906020019080838360005b838110156111005780820151818401526020810190506110e5565b50505050905090810190601f16801561112d5780820380516001836020036101000a031916815260200191505b50848103825288818151815260200191508051906020019080838360005b8381101561116657808201518184015260208101905061114b565b50505050905090810190601f1680156111935780820380516001836020036101000a031916815260200191505b509b50505050505050505050505060405180910390a1505050565b828054600181600116156101000203166002900490600052602060002090601f016020900481019282601f106111ef57805160ff191683800117855561121d565b8280016001018555821561121d579182015b8281111561121c578251825591602001919060010190611201565b5b50905061122a919061128e565b5090565b60e06040519081016040528060608152602001606081526020016000815260200160608152602001600063ffffffff168152602001600063ffffffff168152602001600073ffffffffffffffffffffffffffffffffffffffff1681525090565b6112b091905b808211156112ac576000816000905550600101611294565b5090565b9056fea165627a7a723058200fc6836cc31450b0d983539476a14d97009a47eafafd3e0ce82d7860c0eab6740029",
  "source": "pragma solidity ^0.5.0;\n\ncontract TicketSale {\n  event NewEventRegistered(uint id, string title, string location, uint256 date,\n                           string imageUrl, uint32 price, uint32 qty, address owner);\n\n  event UpdateEvent(uint id, string title, string location, \n                    uint256 date, string imageUrl, uint32 price, uint32 qty, address owner);\n\n  event TicketRegistered(uint id, uint event_id, address buyer);\n\n  struct TicketEvent {\n    string title;\n    string location;\n    uint256 date;\n    string imageUrl;\n    uint32 price;\n    uint32 qty;\n    address owner;\n  }\n\n  TicketEvent[] public tickets;\n  uint ticketsSold = 0;\n\n  function postEvent(\n    string memory _title, \n    string memory _location, \n    uint256 _date,\n    string memory _imageUrl, \n    uint32 _price, \n    uint32 _qty ) public {\n\n    uint id = tickets.push(TicketEvent(_title, _location, _date, _imageUrl, _price, _qty, msg.sender)) - 1;\n    emit NewEventRegistered(id, _title, _location, _date, _imageUrl, _price, _qty, msg.sender);\n  }\n\n  function buyTicket(uint event_id) public payable {\n    TicketEvent memory ticket = tickets[event_id];\n\n    // Check sell conditions\n    require(ticket.qty > 0, \"Sorry! All tickets are sold out.\");\n    require(ticket.date >= now, \"You cant buy tickets after event\");\n    require(ticket.price == msg.value, \"You send value different than ticket price\");\n\n    // Descrease tickets quantity left\n    uint ticket_id = ticketsSold++;\n    tickets[event_id].qty--;\n\n    // Updating events\n    emit TicketRegistered(ticket_id, event_id, msg.sender);\n    emit UpdateEvent(event_id, ticket.title, ticket.location, ticket.date, ticket.imageUrl, ticket.price, ticket.qty-1, ticket.owner);\n  }\n}\n",
  "sourcePath": "/Users/mikhail/Coding/graphql/graphboard/contracts/TicketSale.sol",
  "compiler": {
    "name": "solc",
    "version": "0.5.0+commit.1d4f565a.Emscripten.clang"
  },
  "schemaVersion": "3.0.9",
  "updatedAt": "2019-05-23T22:10:21.227Z",
  "devdoc": {
    "methods": {}
  },
  "userdoc": {
    "methods": {}
  }
}